{
  "_format": "hh-sol-artifact-1",
  "contractName": "Voting",
  "sourceName": "contracts/Voting.sol",
  "abi": [
    {
      "inputs": [],
      "stateMutability": "nonpayable",
      "type": "constructor"
    },
    {
      "anonymous": false,
      "inputs": [
        {
          "indexed": true,
          "internalType": "address",
          "name": "owner",
          "type": "address"
        },
        {
          "indexed": true,
          "internalType": "uint256",
          "name": "electionId",
          "type": "uint256"
        },
        {
          "indexed": true,
          "internalType": "uint256",
          "name": "createdAt",
          "type": "uint256"
        },
        {
          "indexed": false,
          "internalType": "uint256",
          "name": "endTime",
          "type": "uint256"
        }
      ],
      "name": "ElectionCreated",
      "type": "event"
    },
    {
      "anonymous": false,
      "inputs": [
        {
          "indexed": true,
          "internalType": "address",
          "name": "voter",
          "type": "address"
        },
        {
          "indexed": true,
          "internalType": "uint256",
          "name": "voteId",
          "type": "uint256"
        },
        {
          "indexed": true,
          "internalType": "uint256",
          "name": "option",
          "type": "uint256"
        },
        {
          "indexed": false,
          "internalType": "uint256",
          "name": "createdAt",
          "type": "uint256"
        }
      ],
      "name": "Voted",
      "type": "event"
    },
    {
      "inputs": [
        {
          "internalType": "string",
          "name": "uri",
          "type": "string"
        },
        {
          "internalType": "uint256",
          "name": "endTime",
          "type": "uint256"
        },
        {
          "internalType": "uint256",
          "name": "options",
          "type": "uint256"
        }
      ],
      "name": "createElection",
      "outputs": [],
      "stateMutability": "nonpayable",
      "type": "function"
    },
    {
      "inputs": [],
      "name": "getAdmin",
      "outputs": [
        {
          "internalType": "address",
          "name": "",
          "type": "address"
        }
      ],
      "stateMutability": "view",
      "type": "function"
    },
    {
      "inputs": [
        {
          "internalType": "uint256",
          "name": "electionId",
          "type": "uint256"
        }
      ],
      "name": "getVote",
      "outputs": [
        {
          "internalType": "string",
          "name": "",
          "type": "string"
        },
        {
          "internalType": "address",
          "name": "",
          "type": "address"
        },
        {
          "internalType": "uint256[]",
          "name": "",
          "type": "uint256[]"
        },
        {
          "internalType": "uint256",
          "name": "",
          "type": "uint256"
        }
      ],
      "stateMutability": "view",
      "type": "function"
    },
    {
      "inputs": [],
      "name": "isAdmin",
      "outputs": [
        {
          "internalType": "bool",
          "name": "",
          "type": "bool"
        }
      ],
      "stateMutability": "view",
      "type": "function"
    },
    {
      "inputs": [
        {
          "internalType": "uint256",
          "name": "electionId",
          "type": "uint256"
        },
        {
          "internalType": "uint256",
          "name": "option",
          "type": "uint256"
        }
      ],
      "name": "vote",
      "outputs": [],
      "stateMutability": "nonpayable",
      "type": "function"
    }
  ],
  "bytecode": "0x608060405234801561001057600080fd5b50336000806101000a81548173ffffffffffffffffffffffffffffffffffffffff021916908373ffffffffffffffffffffffffffffffffffffffff1602179055506115a4806100606000396000f3fe608060405234801561001057600080fd5b50600436106100575760003560e01c80635a55c1f01461005c5780636e9960c31461008f578063b384abef146100ad578063b6db75a0146100c9578063f49a7a17146100e7575b600080fd5b610076600480360381019061007191906109c2565b610103565b6040516100869493929190610b8d565b60405180910390f35b610097610272565b6040516100a49190610be0565b60405180910390f35b6100c760048036038101906100c29190610bfb565b61029b565b005b6100d161060c565b6040516100de9190610c56565b60405180910390f35b61010160048036038101906100fc9190610da6565b610663565b005b6060600060606000600260008681526020019081526020016000206000016002600087815260200190815260200160002060010160009054906101000a900473ffffffffffffffffffffffffffffffffffffffff1660026000888152602001908152602001600020600301600260008981526020019081526020016000206002015483805461019190610e44565b80601f01602080910402602001604051908101604052809291908181526020018280546101bd90610e44565b801561020a5780601f106101df5761010080835404028352916020019161020a565b820191906000526020600020905b8154815290600101906020018083116101ed57829003601f168201915b505050505093508180548060200260200160405190810160405280929190818152602001828054801561025c57602002820191906000526020600020905b815481526020019060010190808311610248575b5050505050915093509350935093509193509193565b60008060009054906101000a900473ffffffffffffffffffffffffffffffffffffffff16905090565b816002600082815260200190815260200160002060040160003373ffffffffffffffffffffffffffffffffffffffff1673ffffffffffffffffffffffffffffffffffffffff16815260200190815260200160002060009054906101000a900460ff1661033c576040517f08c379a000000000000000000000000000000000000000000000000000000000815260040161033390610ec1565b60405180910390fd5b82826001548210610382576040517f08c379a000000000000000000000000000000000000000000000000000000000815260040161037990610f2d565b60405180910390fd5b600260008381526020019081526020016000206007015481106103da576040517f08c379a00000000000000000000000000000000000000000000000000000000081526004016103d190610f99565b60405180910390fd5b6002600083815260200190815260200160002060060160003373ffffffffffffffffffffffffffffffffffffffff1673ffffffffffffffffffffffffffffffffffffffff16815260200190815260200160002060009054906101000a900460ff161561047b576040517f08c379a000000000000000000000000000000000000000000000000000000000815260040161047290611005565b60405180910390fd5b60026000838152602001908152602001600020600201544211156104d4576040517f08c379a00000000000000000000000000000000000000000000000000000000081526004016104cb90611071565b60405180910390fd5b60016002600087815260200190815260200160002060030185815481106104fe576104fd611091565b5b906000526020600020015461051391906110ef565b60026000878152602001908152602001600020600301858154811061053b5761053a611091565b5b906000526020600020018190555060016002600087815260200190815260200160002060060160003373ffffffffffffffffffffffffffffffffffffffff1673ffffffffffffffffffffffffffffffffffffffff16815260200190815260200160002060006101000a81548160ff02191690831515021790555083853373ffffffffffffffffffffffffffffffffffffffff167fc32b42768a47a585121e9b8d7a2ab9d3f34c326a192dee11ee1732e3d18313f3426040516105fd9190611123565b60405180910390a45050505050565b60008060009054906101000a900473ffffffffffffffffffffffffffffffffffffffff1673ffffffffffffffffffffffffffffffffffffffff163373ffffffffffffffffffffffffffffffffffffffff1614905090565b3373ffffffffffffffffffffffffffffffffffffffff1660008054906101000a900473ffffffffffffffffffffffffffffffffffffffff1673ffffffffffffffffffffffffffffffffffffffff16146106f1576040517f08c379a00000000000000000000000000000000000000000000000000000000081526004016106e89061118a565b60405180910390fd5b6002811015610735576040517f08c379a000000000000000000000000000000000000000000000000000000000815260040161072c9061121c565b60405180910390fd5b428211610777576040517f08c379a000000000000000000000000000000000000000000000000000000000815260040161076e90611288565b60405180910390fd5b60006001549050836002600083815260200190815260200160002060000190816107a19190611454565b50336002600083815260200190815260200160002060010160006101000a81548173ffffffffffffffffffffffffffffffffffffffff021916908373ffffffffffffffffffffffffffffffffffffffff1602179055508260026000838152602001908152602001600020600201819055508160026000838152602001908152602001600020600701819055508167ffffffffffffffff81111561084757610846610c7b565b5b6040519080825280602002602001820160405280156108755781602001602082028036833780820191505090505b5060026000838152602001908152602001600020600301908051906020019061089f92919061090e565b5042813373ffffffffffffffffffffffffffffffffffffffff167f91a11d5313bbde13a24952302dd368e9b73f30da3c9dc8785e35c1c276e59010866040516108e89190611123565b60405180910390a46001600081548092919061090390611526565b919050555050505050565b82805482825590600052602060002090810192821561094a579160200282015b8281111561094957825182559160200191906001019061092e565b5b509050610957919061095b565b5090565b5b8082111561097457600081600090555060010161095c565b5090565b6000604051905090565b600080fd5b600080fd5b6000819050919050565b61099f8161098c565b81146109aa57600080fd5b50565b6000813590506109bc81610996565b92915050565b6000602082840312156109d8576109d7610982565b5b60006109e6848285016109ad565b91505092915050565b600081519050919050565b600082825260208201905092915050565b60005b83811015610a29578082015181840152602081019050610a0e565b60008484015250505050565b6000601f19601f8301169050919050565b6000610a51826109ef565b610a5b81856109fa565b9350610a6b818560208601610a0b565b610a7481610a35565b840191505092915050565b600073ffffffffffffffffffffffffffffffffffffffff82169050919050565b6000610aaa82610a7f565b9050919050565b610aba81610a9f565b82525050565b600081519050919050565b600082825260208201905092915050565b6000819050602082019050919050565b610af58161098c565b82525050565b6000610b078383610aec565b60208301905092915050565b6000602082019050919050565b6000610b2b82610ac0565b610b358185610acb565b9350610b4083610adc565b8060005b83811015610b71578151610b588882610afb565b9750610b6383610b13565b925050600181019050610b44565b5085935050505092915050565b610b878161098c565b82525050565b60006080820190508181036000830152610ba78187610a46565b9050610bb66020830186610ab1565b8181036040830152610bc88185610b20565b9050610bd76060830184610b7e565b95945050505050565b6000602082019050610bf56000830184610ab1565b92915050565b60008060408385031215610c1257610c11610982565b5b6000610c20858286016109ad565b9250506020610c31858286016109ad565b9150509250929050565b60008115159050919050565b610c5081610c3b565b82525050565b6000602082019050610c6b6000830184610c47565b92915050565b600080fd5b600080fd5b7f4e487b7100000000000000000000000000000000000000000000000000000000600052604160045260246000fd5b610cb382610a35565b810181811067ffffffffffffffff82111715610cd257610cd1610c7b565b5b80604052505050565b6000610ce5610978565b9050610cf18282610caa565b919050565b600067ffffffffffffffff821115610d1157610d10610c7b565b5b610d1a82610a35565b9050602081019050919050565b82818337600083830152505050565b6000610d49610d4484610cf6565b610cdb565b905082815260208101848484011115610d6557610d64610c76565b5b610d70848285610d27565b509392505050565b600082601f830112610d8d57610d8c610c71565b5b8135610d9d848260208601610d36565b91505092915050565b600080600060608486031215610dbf57610dbe610982565b5b600084013567ffffffffffffffff811115610ddd57610ddc610987565b5b610de986828701610d78565b9350506020610dfa868287016109ad565b9250506040610e0b868287016109ad565b9150509250925092565b7f4e487b7100000000000000000000000000000000000000000000000000000000600052602260045260246000fd5b60006002820490506001821680610e5c57607f821691505b602082108103610e6f57610e6e610e15565b5b50919050565b7f6e6f74206d656d626572206f6620656c656374696f6e00000000000000000000600082015250565b6000610eab6016836109fa565b9150610eb682610e75565b602082019050919050565b60006020820190508181036000830152610eda81610e9e565b9050919050565b7f656c656374696f6e20646f6573206e6f74206578697374000000000000000000600082015250565b6000610f176017836109fa565b9150610f2282610ee1565b602082019050919050565b60006020820190508181036000830152610f4681610f0a565b9050919050565b7f696e76616c6964206f7074696f6e000000000000000000000000000000000000600082015250565b6000610f83600e836109fa565b9150610f8e82610f4d565b602082019050919050565b60006020820190508181036000830152610fb281610f76565b9050919050565b7f796f75206861766520616c726561647920766f74656400000000000000000000600082015250565b6000610fef6016836109fa565b9150610ffa82610fb9565b602082019050919050565b6000602082019050818103600083015261101e81610fe2565b9050919050565b7f766f74652068617320656e646564000000000000000000000000000000000000600082015250565b600061105b600e836109fa565b915061106682611025565b602082019050919050565b6000602082019050818103600083015261108a8161104e565b9050919050565b7f4e487b7100000000000000000000000000000000000000000000000000000000600052603260045260246000fd5b7f4e487b7100000000000000000000000000000000000000000000000000000000600052601160045260246000fd5b60006110fa8261098c565b91506111058361098c565b925082820190508082111561111d5761111c6110c0565b5b92915050565b60006020820190506111386000830184610b7e565b92915050565b7f796f7520617265206e6f742061646d696e000000000000000000000000000000600082015250565b60006111746011836109fa565b915061117f8261113e565b602082019050919050565b600060208201905081810360008301526111a381611167565b9050919050565b7f456c656374696f6e2073686f756c64206174206c65617374206861766520747760008201527f6f207061727469636970616e7473000000000000000000000000000000000000602082015250565b6000611206602e836109fa565b9150611211826111aa565b604082019050919050565b60006020820190508181036000830152611235816111f9565b9050919050565b7f656e642074696d652063616e277420626520696e207061737400000000000000600082015250565b60006112726019836109fa565b915061127d8261123c565b602082019050919050565b600060208201905081810360008301526112a181611265565b9050919050565b60008190508160005260206000209050919050565b60006020601f8301049050919050565b600082821b905092915050565b60006008830261130a7fffffffffffffffffffffffffffffffffffffffffffffffffffffffffffffffff826112cd565b61131486836112cd565b95508019841693508086168417925050509392505050565b6000819050919050565b600061135161134c6113478461098c565b61132c565b61098c565b9050919050565b6000819050919050565b61136b83611336565b61137f61137782611358565b8484546112da565b825550505050565b600090565b611394611387565b61139f818484611362565b505050565b5b818110156113c3576113b860008261138c565b6001810190506113a5565b5050565b601f821115611408576113d9816112a8565b6113e2846112bd565b810160208510156113f1578190505b6114056113fd856112bd565b8301826113a4565b50505b505050565b600082821c905092915050565b600061142b6000198460080261140d565b1980831691505092915050565b6000611444838361141a565b9150826002028217905092915050565b61145d826109ef565b67ffffffffffffffff81111561147657611475610c7b565b5b6114808254610e44565b61148b8282856113c7565b600060209050601f8311600181146114be57600084156114ac578287015190505b6114b68582611438565b86555061151e565b601f1984166114cc866112a8565b60005b828110156114f4578489015182556001820191506020850194506020810190506114cf565b86831015611511578489015161150d601f89168261141a565b8355505b6001600288020188555050505b505050505050565b60006115318261098c565b91507fffffffffffffffffffffffffffffffffffffffffffffffffffffffffffffffff8203611563576115626110c0565b5b60018201905091905056fea264697066735822122044b3cea2d05269210b83c9ca8b25a974ca9ea9e0d54109b7ebc744494b76276764736f6c63430008130033",
  "linkReferences": {},
  "deployedLinkReferences": {}
}