{
  "_format": "hh-sol-artifact-1",
  "contractName": "Voting",
  "sourceName": "contracts/Voting.sol",
  "abi": [
    {
      "inputs": [],
      "stateMutability": "nonpayable",
      "type": "constructor"
    },
    {
      "anonymous": false,
      "inputs": [
        {
          "indexed": true,
          "internalType": "address",
          "name": "owner",
          "type": "address"
        },
        {
          "indexed": true,
          "internalType": "uint256",
          "name": "electionId",
          "type": "uint256"
        },
        {
          "indexed": true,
          "internalType": "uint256",
          "name": "createdAt",
          "type": "uint256"
        },
        {
          "indexed": false,
          "internalType": "uint256",
          "name": "endTime",
          "type": "uint256"
        }
      ],
      "name": "ElectionCreated",
      "type": "event"
    },
    {
      "anonymous": false,
      "inputs": [
        {
          "indexed": true,
          "internalType": "address",
          "name": "voter",
          "type": "address"
        },
        {
          "indexed": true,
          "internalType": "uint256",
          "name": "electionId",
          "type": "uint256"
        },
        {
          "indexed": true,
          "internalType": "uint256",
          "name": "option",
          "type": "uint256"
        },
        {
          "indexed": false,
          "internalType": "uint256",
          "name": "createdAt",
          "type": "uint256"
        }
      ],
      "name": "Voted",
      "type": "event"
    },
    {
      "inputs": [
        {
          "internalType": "uint256",
          "name": "electionId",
          "type": "uint256"
        },
        {
          "internalType": "address",
          "name": "member",
          "type": "address"
        }
      ],
      "name": "acceptRequestToBecomeMember",
      "outputs": [],
      "stateMutability": "nonpayable",
      "type": "function"
    },
    {
      "inputs": [
        {
          "internalType": "uint256",
          "name": "electionId",
          "type": "uint256"
        }
      ],
      "name": "checkIsReqSenderMember",
      "outputs": [
        {
          "internalType": "bool",
          "name": "",
          "type": "bool"
        }
      ],
      "stateMutability": "view",
      "type": "function"
    },
    {
      "inputs": [
        {
          "internalType": "string",
          "name": "uri",
          "type": "string"
        },
        {
          "internalType": "uint256",
          "name": "endTime",
          "type": "uint256"
        },
        {
          "internalType": "uint256",
          "name": "options",
          "type": "uint256"
        }
      ],
      "name": "createElection",
      "outputs": [],
      "stateMutability": "nonpayable",
      "type": "function"
    },
    {
      "inputs": [],
      "name": "getAdmin",
      "outputs": [
        {
          "internalType": "address",
          "name": "",
          "type": "address"
        }
      ],
      "stateMutability": "view",
      "type": "function"
    },
    {
      "inputs": [],
      "name": "getAllElections",
      "outputs": [
        {
          "internalType": "string[]",
          "name": "",
          "type": "string[]"
        },
        {
          "internalType": "address[]",
          "name": "",
          "type": "address[]"
        },
        {
          "internalType": "uint256[]",
          "name": "",
          "type": "uint256[]"
        },
        {
          "internalType": "uint256[]",
          "name": "",
          "type": "uint256[]"
        }
      ],
      "stateMutability": "view",
      "type": "function"
    },
    {
      "inputs": [],
      "name": "getCurrentPK",
      "outputs": [
        {
          "internalType": "address",
          "name": "",
          "type": "address"
        }
      ],
      "stateMutability": "view",
      "type": "function"
    },
    {
      "inputs": [
        {
          "internalType": "uint256",
          "name": "electionId",
          "type": "uint256"
        }
      ],
      "name": "getRequestedMembers",
      "outputs": [
        {
          "internalType": "address[]",
          "name": "",
          "type": "address[]"
        }
      ],
      "stateMutability": "view",
      "type": "function"
    },
    {
      "inputs": [
        {
          "internalType": "uint256",
          "name": "electionId",
          "type": "uint256"
        }
      ],
      "name": "getVote",
      "outputs": [
        {
          "internalType": "string",
          "name": "",
          "type": "string"
        },
        {
          "internalType": "address",
          "name": "",
          "type": "address"
        },
        {
          "internalType": "uint256[]",
          "name": "",
          "type": "uint256[]"
        },
        {
          "internalType": "uint256",
          "name": "",
          "type": "uint256"
        }
      ],
      "stateMutability": "view",
      "type": "function"
    },
    {
      "inputs": [
        {
          "internalType": "uint256",
          "name": "electionId",
          "type": "uint256"
        }
      ],
      "name": "hasRequestedMembership",
      "outputs": [
        {
          "internalType": "bool",
          "name": "",
          "type": "bool"
        }
      ],
      "stateMutability": "view",
      "type": "function"
    },
    {
      "inputs": [],
      "name": "isAdmin",
      "outputs": [
        {
          "internalType": "bool",
          "name": "",
          "type": "bool"
        }
      ],
      "stateMutability": "view",
      "type": "function"
    },
    {
      "inputs": [
        {
          "internalType": "uint256",
          "name": "electionId",
          "type": "uint256"
        },
        {
          "internalType": "address",
          "name": "member",
          "type": "address"
        }
      ],
      "name": "isMember",
      "outputs": [
        {
          "internalType": "bool",
          "name": "",
          "type": "bool"
        }
      ],
      "stateMutability": "view",
      "type": "function"
    },
    {
      "inputs": [
        {
          "internalType": "uint256",
          "name": "electionId",
          "type": "uint256"
        }
      ],
      "name": "sendRequestToBecomeMember",
      "outputs": [],
      "stateMutability": "nonpayable",
      "type": "function"
    },
    {
      "inputs": [
        {
          "internalType": "uint256",
          "name": "electionId",
          "type": "uint256"
        },
        {
          "internalType": "uint256",
          "name": "option",
          "type": "uint256"
        }
      ],
      "name": "vote",
      "outputs": [],
      "stateMutability": "nonpayable",
      "type": "function"
    }
  ],
  "bytecode": "0x608060405234801561001057600080fd5b50336000806101000a81548173ffffffffffffffffffffffffffffffffffffffff021916908373ffffffffffffffffffffffffffffffffffffffff160217905550612583806100606000396000f3fe608060405234801561001057600080fd5b50600436106100cf5760003560e01c80636f9ea8de1161008c578063b384abef11610066578063b384abef14610240578063b6db75a01461025c578063c4eb53ca1461027a578063f49a7a1714610296576100cf565b80636f9ea8de146101bf5780637d9e10f5146101ef5780637fd5f2681461021f576100cf565b806320ba4ecd146100d45780632402dad0146100f2578063243f992014610122578063524757291461013e5780635a55c1f01461016e5780636e9960c3146101a1575b600080fd5b6100dc6102b2565b6040516100e99190611538565b60405180910390f35b61010c6004803603810190610107919061159d565b6102ba565b60405161011991906115e5565b60405180910390f35b61013c6004803603810190610137919061159d565b610381565b005b6101586004803603810190610153919061159d565b6104d2565b60405161016591906115e5565b60405180910390f35b6101886004803603810190610183919061159d565b6104e5565b604051610198949392919061175d565b60405180910390f35b6101a9610654565b6040516101b69190611538565b60405180910390f35b6101d960048036038101906101d4919061159d565b61067d565b6040516101e6919061186e565b60405180910390f35b610209600480360381019061020491906118bc565b6107af565b60405161021691906115e5565b60405180910390f35b610227610877565b6040516102379493929190611a08565b60405180910390f35b61025a60048036038101906102559190611a69565b610b6e565b005b610264610e88565b60405161027191906115e5565b60405180910390f35b610294600480360381019061028f91906118bc565b610edf565b005b6102b060048036038101906102ab9190611bde565b6111e2565b005b600033905090565b60008060026000848152602001908152602001600020905060005b8160050180549050811015610375573373ffffffffffffffffffffffffffffffffffffffff1682600501828154811061031157610310611c4d565b5b9060005260206000200160009054906101000a900473ffffffffffffffffffffffffffffffffffffffff1673ffffffffffffffffffffffffffffffffffffffff16036103625760019250505061037c565b808061036d90611cab565b9150506102d5565b5060009150505b919050565b60015481106103c5576040517f08c379a00000000000000000000000000000000000000000000000000000000081526004016103bc90611d3f565b60405180910390fd5b6103cf81336107af565b1561040f576040517f08c379a000000000000000000000000000000000000000000000000000000000815260040161040690611dab565b60405180910390fd5b610418816102ba565b15610458576040517f08c379a000000000000000000000000000000000000000000000000000000000815260040161044f90611e17565b60405180910390fd5b60026000828152602001908152602001600020600501339080600181540180825580915050600190039060005260206000200160009091909190916101000a81548173ffffffffffffffffffffffffffffffffffffffff021916908373ffffffffffffffffffffffffffffffffffffffff16021790555050565b60006104de82336107af565b9050919050565b6060600060606000600260008681526020019081526020016000206000016002600087815260200190815260200160002060010160009054906101000a900473ffffffffffffffffffffffffffffffffffffffff1660026000888152602001908152602001600020600301600260008981526020019081526020016000206002015483805461057390611e66565b80601f016020809104026020016040519081016040528092919081815260200182805461059f90611e66565b80156105ec5780601f106105c1576101008083540402835291602001916105ec565b820191906000526020600020905b8154815290600101906020018083116105cf57829003601f168201915b505050505093508180548060200260200160405190810160405280929190818152602001828054801561063e57602002820191906000526020600020905b81548152602001906001019080831161062a575b5050505050915093509350935093509193509193565b60008060009054906101000a900473ffffffffffffffffffffffffffffffffffffffff16905090565b60603373ffffffffffffffffffffffffffffffffffffffff1660008054906101000a900473ffffffffffffffffffffffffffffffffffffffff1673ffffffffffffffffffffffffffffffffffffffff161461070d576040517f08c379a000000000000000000000000000000000000000000000000000000000815260040161070490611ee3565b60405180910390fd5b600260008381526020019081526020016000206005018054806020026020016040519081016040528092919081815260200182805480156107a357602002820191906000526020600020905b8160009054906101000a900473ffffffffffffffffffffffffffffffffffffffff1673ffffffffffffffffffffffffffffffffffffffff1681526020019060010190808311610759575b50505050509050919050565b60008060026000858152602001908152602001600020905060005b816004018054905081101561086a578373ffffffffffffffffffffffffffffffffffffffff1682600401828154811061080657610805611c4d565b5b9060005260206000200160009054906101000a900473ffffffffffffffffffffffffffffffffffffffff1673ffffffffffffffffffffffffffffffffffffffff160361085757600192505050610871565b808061086290611cab565b9150506107ca565b5060009150505b92915050565b606080606080600060015467ffffffffffffffff81111561089b5761089a611ab3565b5b6040519080825280602002602001820160405280156108ce57816020015b60608152602001906001900390816108b95790505b509050600060015467ffffffffffffffff8111156108ef576108ee611ab3565b5b60405190808252806020026020018201604052801561091d5781602001602082028036833780820191505090505b509050600060015467ffffffffffffffff81111561093e5761093d611ab3565b5b60405190808252806020026020018201604052801561096c5781602001602082028036833780820191505090505b509050600060015467ffffffffffffffff81111561098d5761098c611ab3565b5b6040519080825280602002602001820160405280156109bb5781602001602082028036833780820191505090505b50905060005b600154811015610b575760006002600083815260200190815260200160002090508060000180546109f190611e66565b80601f0160208091040260200160405190810160405280929190818152602001828054610a1d90611e66565b8015610a6a5780601f10610a3f57610100808354040283529160200191610a6a565b820191906000526020600020905b815481529060010190602001808311610a4d57829003601f168201915b5050505050868381518110610a8257610a81611c4d565b5b60200260200101819052508060010160009054906101000a900473ffffffffffffffffffffffffffffffffffffffff16858381518110610ac557610ac4611c4d565b5b602002602001019073ffffffffffffffffffffffffffffffffffffffff16908173ffffffffffffffffffffffffffffffffffffffff16815250508060020154848381518110610b1757610b16611c4d565b5b60200260200101818152505081838381518110610b3757610b36611c4d565b5b602002602001018181525050508080610b4f90611cab565b9150506109c1565b508383838397509750975097505050505090919293565b81610b7981336107af565b610bb8576040517f08c379a0000000000000000000000000000000000000000000000000000000008152600401610baf90611f4f565b60405180910390fd5b82826001548210610bfe576040517f08c379a0000000000000000000000000000000000000000000000000000000008152600401610bf590611fbb565b60405180910390fd5b60026000838152602001908152602001600020600701548110610c56576040517f08c379a0000000000000000000000000000000000000000000000000000000008152600401610c4d90612027565b60405180910390fd5b6002600083815260200190815260200160002060060160003373ffffffffffffffffffffffffffffffffffffffff1673ffffffffffffffffffffffffffffffffffffffff16815260200190815260200160002060009054906101000a900460ff1615610cf7576040517f08c379a0000000000000000000000000000000000000000000000000000000008152600401610cee90612093565b60405180910390fd5b6002600083815260200190815260200160002060020154421115610d50576040517f08c379a0000000000000000000000000000000000000000000000000000000008152600401610d47906120ff565b60405180910390fd5b6001600260008781526020019081526020016000206003018581548110610d7a57610d79611c4d565b5b9060005260206000200154610d8f919061211f565b600260008781526020019081526020016000206003018581548110610db757610db6611c4d565b5b906000526020600020018190555060016002600087815260200190815260200160002060060160003373ffffffffffffffffffffffffffffffffffffffff1673ffffffffffffffffffffffffffffffffffffffff16815260200190815260200160002060006101000a81548160ff02191690831515021790555083853373ffffffffffffffffffffffffffffffffffffffff167fc32b42768a47a585121e9b8d7a2ab9d3f34c326a192dee11ee1732e3d18313f342604051610e799190612153565b60405180910390a45050505050565b60008060009054906101000a900473ffffffffffffffffffffffffffffffffffffffff1673ffffffffffffffffffffffffffffffffffffffff163373ffffffffffffffffffffffffffffffffffffffff1614905090565b3373ffffffffffffffffffffffffffffffffffffffff1660008054906101000a900473ffffffffffffffffffffffffffffffffffffffff1673ffffffffffffffffffffffffffffffffffffffff1614610f6d576040517f08c379a0000000000000000000000000000000000000000000000000000000008152600401610f6490611ee3565b60405180910390fd5b600060026000848152602001908152602001600020905060005b8160050180549050811015611177578273ffffffffffffffffffffffffffffffffffffffff16826005018281548110610fc357610fc2611c4d565b5b9060005260206000200160009054906101000a900473ffffffffffffffffffffffffffffffffffffffff1673ffffffffffffffffffffffffffffffffffffffff160361116457600182600501805490501115611119578160050160018360050180549050611031919061216e565b8154811061104257611041611c4d565b5b9060005260206000200160009054906101000a900473ffffffffffffffffffffffffffffffffffffffff1682600501828154811061108357611082611c4d565b5b9060005260206000200160006101000a81548173ffffffffffffffffffffffffffffffffffffffff021916908373ffffffffffffffffffffffffffffffffffffffff160217905550816005018054806110df576110de6121a2565b5b6001900381819060005260206000200160006101000a81549073ffffffffffffffffffffffffffffffffffffffff02191690559055611163565b8160050180548061112d5761112c6121a2565b5b6001900381819060005260206000200160006101000a81549073ffffffffffffffffffffffffffffffffffffffff021916905590555b5b808061116f90611cab565b915050610f87565b5080600401829080600181540180825580915050600190039060005260206000200160009091909190916101000a81548173ffffffffffffffffffffffffffffffffffffffff021916908373ffffffffffffffffffffffffffffffffffffffff160217905550505050565b3373ffffffffffffffffffffffffffffffffffffffff1660008054906101000a900473ffffffffffffffffffffffffffffffffffffffff1673ffffffffffffffffffffffffffffffffffffffff1614611270576040517f08c379a000000000000000000000000000000000000000000000000000000000815260040161126790611ee3565b60405180910390fd5b60028110156112b4576040517f08c379a00000000000000000000000000000000000000000000000000000000081526004016112ab90612243565b60405180910390fd5b4282116112f6576040517f08c379a00000000000000000000000000000000000000000000000000000000081526004016112ed906122af565b60405180910390fd5b6000600154905083600260008381526020019081526020016000206000019081611320919061247b565b50336002600083815260200190815260200160002060010160006101000a81548173ffffffffffffffffffffffffffffffffffffffff021916908373ffffffffffffffffffffffffffffffffffffffff1602179055508260026000838152602001908152602001600020600201819055508160026000838152602001908152602001600020600701819055508167ffffffffffffffff8111156113c6576113c5611ab3565b5b6040519080825280602002602001820160405280156113f45781602001602082028036833780820191505090505b5060026000838152602001908152602001600020600301908051906020019061141e92919061148d565b5042813373ffffffffffffffffffffffffffffffffffffffff167f91a11d5313bbde13a24952302dd368e9b73f30da3c9dc8785e35c1c276e59010866040516114679190612153565b60405180910390a46001600081548092919061148290611cab565b919050555050505050565b8280548282559060005260206000209081019282156114c9579160200282015b828111156114c85782518255916020019190600101906114ad565b5b5090506114d691906114da565b5090565b5b808211156114f35760008160009055506001016114db565b5090565b600073ffffffffffffffffffffffffffffffffffffffff82169050919050565b6000611522826114f7565b9050919050565b61153281611517565b82525050565b600060208201905061154d6000830184611529565b92915050565b6000604051905090565b600080fd5b600080fd5b6000819050919050565b61157a81611567565b811461158557600080fd5b50565b60008135905061159781611571565b92915050565b6000602082840312156115b3576115b261155d565b5b60006115c184828501611588565b91505092915050565b60008115159050919050565b6115df816115ca565b82525050565b60006020820190506115fa60008301846115d6565b92915050565b600081519050919050565b600082825260208201905092915050565b60005b8381101561163a57808201518184015260208101905061161f565b60008484015250505050565b6000601f19601f8301169050919050565b600061166282611600565b61166c818561160b565b935061167c81856020860161161c565b61168581611646565b840191505092915050565b600081519050919050565b600082825260208201905092915050565b6000819050602082019050919050565b6116c581611567565b82525050565b60006116d783836116bc565b60208301905092915050565b6000602082019050919050565b60006116fb82611690565b611705818561169b565b9350611710836116ac565b8060005b8381101561174157815161172888826116cb565b9750611733836116e3565b925050600181019050611714565b5085935050505092915050565b61175781611567565b82525050565b600060808201905081810360008301526117778187611657565b90506117866020830186611529565b818103604083015261179881856116f0565b90506117a7606083018461174e565b95945050505050565b600081519050919050565b600082825260208201905092915050565b6000819050602082019050919050565b6117e581611517565b82525050565b60006117f783836117dc565b60208301905092915050565b6000602082019050919050565b600061181b826117b0565b61182581856117bb565b9350611830836117cc565b8060005b8381101561186157815161184888826117eb565b975061185383611803565b925050600181019050611834565b5085935050505092915050565b600060208201905081810360008301526118888184611810565b905092915050565b61189981611517565b81146118a457600080fd5b50565b6000813590506118b681611890565b92915050565b600080604083850312156118d3576118d261155d565b5b60006118e185828601611588565b92505060206118f2858286016118a7565b9150509250929050565b600081519050919050565b600082825260208201905092915050565b6000819050602082019050919050565b600082825260208201905092915050565b600061194482611600565b61194e8185611928565b935061195e81856020860161161c565b61196781611646565b840191505092915050565b600061197e8383611939565b905092915050565b6000602082019050919050565b600061199e826118fc565b6119a88185611907565b9350836020820285016119ba85611918565b8060005b858110156119f657848403895281516119d78582611972565b94506119e283611986565b925060208a019950506001810190506119be565b50829750879550505050505092915050565b60006080820190508181036000830152611a228187611993565b90508181036020830152611a368186611810565b90508181036040830152611a4a81856116f0565b90508181036060830152611a5e81846116f0565b905095945050505050565b60008060408385031215611a8057611a7f61155d565b5b6000611a8e85828601611588565b9250506020611a9f85828601611588565b9150509250929050565b600080fd5b600080fd5b7f4e487b7100000000000000000000000000000000000000000000000000000000600052604160045260246000fd5b611aeb82611646565b810181811067ffffffffffffffff82111715611b0a57611b09611ab3565b5b80604052505050565b6000611b1d611553565b9050611b298282611ae2565b919050565b600067ffffffffffffffff821115611b4957611b48611ab3565b5b611b5282611646565b9050602081019050919050565b82818337600083830152505050565b6000611b81611b7c84611b2e565b611b13565b905082815260208101848484011115611b9d57611b9c611aae565b5b611ba8848285611b5f565b509392505050565b600082601f830112611bc557611bc4611aa9565b5b8135611bd5848260208601611b6e565b91505092915050565b600080600060608486031215611bf757611bf661155d565b5b600084013567ffffffffffffffff811115611c1557611c14611562565b5b611c2186828701611bb0565b9350506020611c3286828701611588565b9250506040611c4386828701611588565b9150509250925092565b7f4e487b7100000000000000000000000000000000000000000000000000000000600052603260045260246000fd5b7f4e487b7100000000000000000000000000000000000000000000000000000000600052601160045260246000fd5b6000611cb682611567565b91507fffffffffffffffffffffffffffffffffffffffffffffffffffffffffffffffff8203611ce857611ce7611c7c565b5b600182019050919050565b7f456c656374696f6e20646f6573206e6f74206578697374000000000000000000600082015250565b6000611d2960178361160b565b9150611d3482611cf3565b602082019050919050565b60006020820190508181036000830152611d5881611d1c565b9050919050565b7f416c72656164792061206d656d62657200000000000000000000000000000000600082015250565b6000611d9560108361160b565b9150611da082611d5f565b602082019050919050565b60006020820190508181036000830152611dc481611d88565b9050919050565b7f5265717565737420616c72656164792073656e74000000000000000000000000600082015250565b6000611e0160148361160b565b9150611e0c82611dcb565b602082019050919050565b60006020820190508181036000830152611e3081611df4565b9050919050565b7f4e487b7100000000000000000000000000000000000000000000000000000000600052602260045260246000fd5b60006002820490506001821680611e7e57607f821691505b602082108103611e9157611e90611e37565b5b50919050565b7f796f7520617265206e6f742061646d696e000000000000000000000000000000600082015250565b6000611ecd60118361160b565b9150611ed882611e97565b602082019050919050565b60006020820190508181036000830152611efc81611ec0565b9050919050565b7f4e6f742061206d656d626572206f662074686520656c656374696f6e00000000600082015250565b6000611f39601c8361160b565b9150611f4482611f03565b602082019050919050565b60006020820190508181036000830152611f6881611f2c565b9050919050565b7f656c656374696f6e20646f6573206e6f74206578697374000000000000000000600082015250565b6000611fa560178361160b565b9150611fb082611f6f565b602082019050919050565b60006020820190508181036000830152611fd481611f98565b9050919050565b7f696e76616c6964206f7074696f6e000000000000000000000000000000000000600082015250565b6000612011600e8361160b565b915061201c82611fdb565b602082019050919050565b6000602082019050818103600083015261204081612004565b9050919050565b7f796f75206861766520616c726561647920766f74656400000000000000000000600082015250565b600061207d60168361160b565b915061208882612047565b602082019050919050565b600060208201905081810360008301526120ac81612070565b9050919050565b7f766f74652068617320656e646564000000000000000000000000000000000000600082015250565b60006120e9600e8361160b565b91506120f4826120b3565b602082019050919050565b60006020820190508181036000830152612118816120dc565b9050919050565b600061212a82611567565b915061213583611567565b925082820190508082111561214d5761214c611c7c565b5b92915050565b6000602082019050612168600083018461174e565b92915050565b600061217982611567565b915061218483611567565b925082820390508181111561219c5761219b611c7c565b5b92915050565b7f4e487b7100000000000000000000000000000000000000000000000000000000600052603160045260246000fd5b7f456c656374696f6e2073686f756c64206174206c65617374206861766520747760008201527f6f207061727469636970616e7473000000000000000000000000000000000000602082015250565b600061222d602e8361160b565b9150612238826121d1565b604082019050919050565b6000602082019050818103600083015261225c81612220565b9050919050565b7f656e642074696d652063616e277420626520696e207061737400000000000000600082015250565b600061229960198361160b565b91506122a482612263565b602082019050919050565b600060208201905081810360008301526122c88161228c565b9050919050565b60008190508160005260206000209050919050565b60006020601f8301049050919050565b600082821b905092915050565b6000600883026123317fffffffffffffffffffffffffffffffffffffffffffffffffffffffffffffffff826122f4565b61233b86836122f4565b95508019841693508086168417925050509392505050565b6000819050919050565b600061237861237361236e84611567565b612353565b611567565b9050919050565b6000819050919050565b6123928361235d565b6123a661239e8261237f565b848454612301565b825550505050565b600090565b6123bb6123ae565b6123c6818484612389565b505050565b5b818110156123ea576123df6000826123b3565b6001810190506123cc565b5050565b601f82111561242f57612400816122cf565b612409846122e4565b81016020851015612418578190505b61242c612424856122e4565b8301826123cb565b50505b505050565b600082821c905092915050565b600061245260001984600802612434565b1980831691505092915050565b600061246b8383612441565b9150826002028217905092915050565b61248482611600565b67ffffffffffffffff81111561249d5761249c611ab3565b5b6124a78254611e66565b6124b28282856123ee565b600060209050601f8311600181146124e557600084156124d3578287015190505b6124dd858261245f565b865550612545565b601f1984166124f3866122cf565b60005b8281101561251b578489015182556001820191506020850194506020810190506124f6565b868310156125385784890151612534601f891682612441565b8355505b6001600288020188555050505b50505050505056fea26469706673582212200ef7e2cc2adb60e395d2d4bbc35abbf9d89808916c8364bceffc232f0c4e56b164736f6c63430008130033",
  "linkReferences": {},
  "deployedLinkReferences": {}
}