{
  "_format": "hh-sol-artifact-1",
  "contractName": "Voting",
  "sourceName": "contracts/Voting.sol",
  "abi": [
    {
      "inputs": [],
      "stateMutability": "nonpayable",
      "type": "constructor"
    },
    {
      "anonymous": false,
      "inputs": [
        {
          "indexed": true,
          "internalType": "address",
          "name": "owner",
          "type": "address"
        },
        {
          "indexed": true,
          "internalType": "uint256",
          "name": "electionId",
          "type": "uint256"
        },
        {
          "indexed": true,
          "internalType": "uint256",
          "name": "createdAt",
          "type": "uint256"
        },
        {
          "indexed": false,
          "internalType": "uint256",
          "name": "endTime",
          "type": "uint256"
        }
      ],
      "name": "ElectionCreated",
      "type": "event"
    },
    {
      "anonymous": false,
      "inputs": [
        {
          "indexed": true,
          "internalType": "address",
          "name": "voter",
          "type": "address"
        },
        {
          "indexed": true,
          "internalType": "uint256",
          "name": "electionId",
          "type": "uint256"
        },
        {
          "indexed": true,
          "internalType": "uint256",
          "name": "option",
          "type": "uint256"
        },
        {
          "indexed": false,
          "internalType": "uint256",
          "name": "createdAt",
          "type": "uint256"
        }
      ],
      "name": "Voted",
      "type": "event"
    },
    {
      "inputs": [
        {
          "internalType": "uint256",
          "name": "electionId",
          "type": "uint256"
        },
        {
          "internalType": "address",
          "name": "member",
          "type": "address"
        }
      ],
      "name": "acceptRequestToBecomeMember",
      "outputs": [],
      "stateMutability": "nonpayable",
      "type": "function"
    },
    {
      "inputs": [
        {
          "internalType": "uint256",
          "name": "electionId",
          "type": "uint256"
        }
      ],
      "name": "checkIsReqSenderMember",
      "outputs": [
        {
          "internalType": "bool",
          "name": "",
          "type": "bool"
        }
      ],
      "stateMutability": "view",
      "type": "function"
    },
    {
      "inputs": [
        {
          "internalType": "string",
          "name": "uri",
          "type": "string"
        },
        {
          "internalType": "uint256",
          "name": "endTime",
          "type": "uint256"
        },
        {
          "internalType": "uint256",
          "name": "options",
          "type": "uint256"
        }
      ],
      "name": "createElection",
      "outputs": [],
      "stateMutability": "nonpayable",
      "type": "function"
    },
    {
      "inputs": [],
      "name": "getAdmin",
      "outputs": [
        {
          "internalType": "address",
          "name": "",
          "type": "address"
        }
      ],
      "stateMutability": "view",
      "type": "function"
    },
    {
      "inputs": [],
      "name": "getAllElections",
      "outputs": [
        {
          "internalType": "string[]",
          "name": "",
          "type": "string[]"
        },
        {
          "internalType": "address[]",
          "name": "",
          "type": "address[]"
        },
        {
          "internalType": "uint256[]",
          "name": "",
          "type": "uint256[]"
        },
        {
          "internalType": "uint256[]",
          "name": "",
          "type": "uint256[]"
        }
      ],
      "stateMutability": "view",
      "type": "function"
    },
    {
      "inputs": [
        {
          "internalType": "uint256",
          "name": "electionId",
          "type": "uint256"
        }
      ],
      "name": "getRequestedMembers",
      "outputs": [
        {
          "internalType": "address[]",
          "name": "",
          "type": "address[]"
        }
      ],
      "stateMutability": "view",
      "type": "function"
    },
    {
      "inputs": [
        {
          "internalType": "uint256",
          "name": "electionId",
          "type": "uint256"
        }
      ],
      "name": "getVote",
      "outputs": [
        {
          "internalType": "string",
          "name": "",
          "type": "string"
        },
        {
          "internalType": "address",
          "name": "",
          "type": "address"
        },
        {
          "internalType": "uint256[]",
          "name": "",
          "type": "uint256[]"
        },
        {
          "internalType": "uint256",
          "name": "",
          "type": "uint256"
        }
      ],
      "stateMutability": "view",
      "type": "function"
    },
    {
      "inputs": [
        {
          "internalType": "uint256",
          "name": "electionId",
          "type": "uint256"
        }
      ],
      "name": "hasRequestedMembership",
      "outputs": [
        {
          "internalType": "bool",
          "name": "",
          "type": "bool"
        }
      ],
      "stateMutability": "view",
      "type": "function"
    },
    {
      "inputs": [],
      "name": "isAdmin",
      "outputs": [
        {
          "internalType": "bool",
          "name": "",
          "type": "bool"
        }
      ],
      "stateMutability": "view",
      "type": "function"
    },
    {
      "inputs": [
        {
          "internalType": "uint256",
          "name": "electionId",
          "type": "uint256"
        },
        {
          "internalType": "address",
          "name": "member",
          "type": "address"
        }
      ],
      "name": "isMember",
      "outputs": [
        {
          "internalType": "bool",
          "name": "",
          "type": "bool"
        }
      ],
      "stateMutability": "view",
      "type": "function"
    },
    {
      "inputs": [
        {
          "internalType": "uint256",
          "name": "electionId",
          "type": "uint256"
        }
      ],
      "name": "sendRequestToBecomeMember",
      "outputs": [],
      "stateMutability": "nonpayable",
      "type": "function"
    },
    {
      "inputs": [
        {
          "internalType": "uint256",
          "name": "electionId",
          "type": "uint256"
        },
        {
          "internalType": "uint256",
          "name": "option",
          "type": "uint256"
        }
      ],
      "name": "vote",
      "outputs": [],
      "stateMutability": "nonpayable",
      "type": "function"
    }
  ],
  "bytecode": "0x608060405234801561001057600080fd5b50336000806101000a81548173ffffffffffffffffffffffffffffffffffffffff021916908373ffffffffffffffffffffffffffffffffffffffff160217905550612542806100606000396000f3fe608060405234801561001057600080fd5b50600436106100b45760003560e01c80637d9e10f5116100715780637d9e10f5146101b65780637fd5f268146101e6578063b384abef14610207578063b6db75a014610223578063c4eb53ca14610241578063f49a7a171461025d576100b4565b80632402dad0146100b9578063243f9920146100e957806352475729146101055780635a55c1f0146101355780636e9960c3146101685780636f9ea8de14610186575b600080fd5b6100d360048036038101906100ce9190611500565b610279565b6040516100e09190611548565b60405180910390f35b61010360048036038101906100fe9190611500565b610340565b005b61011f600480360381019061011a9190611500565b610491565b60405161012c9190611548565b60405180910390f35b61014f600480360381019061014a9190611500565b6104a4565b60405161015f9493929190611701565b60405180910390f35b610170610613565b60405161017d9190611754565b60405180910390f35b6101a0600480360381019061019b9190611500565b61063c565b6040516101ad919061182d565b60405180910390f35b6101d060048036038101906101cb919061187b565b61076e565b6040516101dd9190611548565b60405180910390f35b6101ee610836565b6040516101fe94939291906119c7565b60405180910390f35b610221600480360381019061021c9190611a28565b610b2d565b005b61022b610e47565b6040516102389190611548565b60405180910390f35b61025b6004803603810190610256919061187b565b610e9e565b005b61027760048036038101906102729190611b9d565b6111a1565b005b60008060026000848152602001908152602001600020905060005b8160050180549050811015610334573373ffffffffffffffffffffffffffffffffffffffff168260050182815481106102d0576102cf611c0c565b5b9060005260206000200160009054906101000a900473ffffffffffffffffffffffffffffffffffffffff1673ffffffffffffffffffffffffffffffffffffffff16036103215760019250505061033b565b808061032c90611c6a565b915050610294565b5060009150505b919050565b6001548110610384576040517f08c379a000000000000000000000000000000000000000000000000000000000815260040161037b90611cfe565b60405180910390fd5b61038e813361076e565b156103ce576040517f08c379a00000000000000000000000000000000000000000000000000000000081526004016103c590611d6a565b60405180910390fd5b6103d781610279565b15610417576040517f08c379a000000000000000000000000000000000000000000000000000000000815260040161040e90611dd6565b60405180910390fd5b60026000828152602001908152602001600020600501339080600181540180825580915050600190039060005260206000200160009091909190916101000a81548173ffffffffffffffffffffffffffffffffffffffff021916908373ffffffffffffffffffffffffffffffffffffffff16021790555050565b600061049d823361076e565b9050919050565b6060600060606000600260008681526020019081526020016000206000016002600087815260200190815260200160002060010160009054906101000a900473ffffffffffffffffffffffffffffffffffffffff1660026000888152602001908152602001600020600301600260008981526020019081526020016000206002015483805461053290611e25565b80601f016020809104026020016040519081016040528092919081815260200182805461055e90611e25565b80156105ab5780601f10610580576101008083540402835291602001916105ab565b820191906000526020600020905b81548152906001019060200180831161058e57829003601f168201915b50505050509350818054806020026020016040519081016040528092919081815260200182805480156105fd57602002820191906000526020600020905b8154815260200190600101908083116105e9575b5050505050915093509350935093509193509193565b60008060009054906101000a900473ffffffffffffffffffffffffffffffffffffffff16905090565b60603373ffffffffffffffffffffffffffffffffffffffff1660008054906101000a900473ffffffffffffffffffffffffffffffffffffffff1673ffffffffffffffffffffffffffffffffffffffff16146106cc576040517f08c379a00000000000000000000000000000000000000000000000000000000081526004016106c390611ea2565b60405180910390fd5b6002600083815260200190815260200160002060050180548060200260200160405190810160405280929190818152602001828054801561076257602002820191906000526020600020905b8160009054906101000a900473ffffffffffffffffffffffffffffffffffffffff1673ffffffffffffffffffffffffffffffffffffffff1681526020019060010190808311610718575b50505050509050919050565b60008060026000858152602001908152602001600020905060005b8160040180549050811015610829578373ffffffffffffffffffffffffffffffffffffffff168260040182815481106107c5576107c4611c0c565b5b9060005260206000200160009054906101000a900473ffffffffffffffffffffffffffffffffffffffff1673ffffffffffffffffffffffffffffffffffffffff160361081657600192505050610830565b808061082190611c6a565b915050610789565b5060009150505b92915050565b606080606080600060015467ffffffffffffffff81111561085a57610859611a72565b5b60405190808252806020026020018201604052801561088d57816020015b60608152602001906001900390816108785790505b509050600060015467ffffffffffffffff8111156108ae576108ad611a72565b5b6040519080825280602002602001820160405280156108dc5781602001602082028036833780820191505090505b509050600060015467ffffffffffffffff8111156108fd576108fc611a72565b5b60405190808252806020026020018201604052801561092b5781602001602082028036833780820191505090505b509050600060015467ffffffffffffffff81111561094c5761094b611a72565b5b60405190808252806020026020018201604052801561097a5781602001602082028036833780820191505090505b50905060005b600154811015610b165760006002600083815260200190815260200160002090508060000180546109b090611e25565b80601f01602080910402602001604051908101604052809291908181526020018280546109dc90611e25565b8015610a295780601f106109fe57610100808354040283529160200191610a29565b820191906000526020600020905b815481529060010190602001808311610a0c57829003601f168201915b5050505050868381518110610a4157610a40611c0c565b5b60200260200101819052508060010160009054906101000a900473ffffffffffffffffffffffffffffffffffffffff16858381518110610a8457610a83611c0c565b5b602002602001019073ffffffffffffffffffffffffffffffffffffffff16908173ffffffffffffffffffffffffffffffffffffffff16815250508060020154848381518110610ad657610ad5611c0c565b5b60200260200101818152505081838381518110610af657610af5611c0c565b5b602002602001018181525050508080610b0e90611c6a565b915050610980565b508383838397509750975097505050505090919293565b81610b38813361076e565b610b77576040517f08c379a0000000000000000000000000000000000000000000000000000000008152600401610b6e90611f0e565b60405180910390fd5b82826001548210610bbd576040517f08c379a0000000000000000000000000000000000000000000000000000000008152600401610bb490611f7a565b60405180910390fd5b60026000838152602001908152602001600020600701548110610c15576040517f08c379a0000000000000000000000000000000000000000000000000000000008152600401610c0c90611fe6565b60405180910390fd5b6002600083815260200190815260200160002060060160003373ffffffffffffffffffffffffffffffffffffffff1673ffffffffffffffffffffffffffffffffffffffff16815260200190815260200160002060009054906101000a900460ff1615610cb6576040517f08c379a0000000000000000000000000000000000000000000000000000000008152600401610cad90612052565b60405180910390fd5b6002600083815260200190815260200160002060020154421115610d0f576040517f08c379a0000000000000000000000000000000000000000000000000000000008152600401610d06906120be565b60405180910390fd5b6001600260008781526020019081526020016000206003018581548110610d3957610d38611c0c565b5b9060005260206000200154610d4e91906120de565b600260008781526020019081526020016000206003018581548110610d7657610d75611c0c565b5b906000526020600020018190555060016002600087815260200190815260200160002060060160003373ffffffffffffffffffffffffffffffffffffffff1673ffffffffffffffffffffffffffffffffffffffff16815260200190815260200160002060006101000a81548160ff02191690831515021790555083853373ffffffffffffffffffffffffffffffffffffffff167fc32b42768a47a585121e9b8d7a2ab9d3f34c326a192dee11ee1732e3d18313f342604051610e389190612112565b60405180910390a45050505050565b60008060009054906101000a900473ffffffffffffffffffffffffffffffffffffffff1673ffffffffffffffffffffffffffffffffffffffff163373ffffffffffffffffffffffffffffffffffffffff1614905090565b3373ffffffffffffffffffffffffffffffffffffffff1660008054906101000a900473ffffffffffffffffffffffffffffffffffffffff1673ffffffffffffffffffffffffffffffffffffffff1614610f2c576040517f08c379a0000000000000000000000000000000000000000000000000000000008152600401610f2390611ea2565b60405180910390fd5b600060026000848152602001908152602001600020905060005b8160050180549050811015611136578273ffffffffffffffffffffffffffffffffffffffff16826005018281548110610f8257610f81611c0c565b5b9060005260206000200160009054906101000a900473ffffffffffffffffffffffffffffffffffffffff1673ffffffffffffffffffffffffffffffffffffffff1603611123576001826005018054905011156110d8578160050160018360050180549050610ff0919061212d565b8154811061100157611000611c0c565b5b9060005260206000200160009054906101000a900473ffffffffffffffffffffffffffffffffffffffff1682600501828154811061104257611041611c0c565b5b9060005260206000200160006101000a81548173ffffffffffffffffffffffffffffffffffffffff021916908373ffffffffffffffffffffffffffffffffffffffff1602179055508160050180548061109e5761109d612161565b5b6001900381819060005260206000200160006101000a81549073ffffffffffffffffffffffffffffffffffffffff02191690559055611122565b816005018054806110ec576110eb612161565b5b6001900381819060005260206000200160006101000a81549073ffffffffffffffffffffffffffffffffffffffff021916905590555b5b808061112e90611c6a565b915050610f46565b5080600401829080600181540180825580915050600190039060005260206000200160009091909190916101000a81548173ffffffffffffffffffffffffffffffffffffffff021916908373ffffffffffffffffffffffffffffffffffffffff160217905550505050565b3373ffffffffffffffffffffffffffffffffffffffff1660008054906101000a900473ffffffffffffffffffffffffffffffffffffffff1673ffffffffffffffffffffffffffffffffffffffff161461122f576040517f08c379a000000000000000000000000000000000000000000000000000000000815260040161122690611ea2565b60405180910390fd5b6002811015611273576040517f08c379a000000000000000000000000000000000000000000000000000000000815260040161126a90612202565b60405180910390fd5b4282116112b5576040517f08c379a00000000000000000000000000000000000000000000000000000000081526004016112ac9061226e565b60405180910390fd5b60006001549050836002600083815260200190815260200160002060000190816112df919061243a565b50336002600083815260200190815260200160002060010160006101000a81548173ffffffffffffffffffffffffffffffffffffffff021916908373ffffffffffffffffffffffffffffffffffffffff1602179055508260026000838152602001908152602001600020600201819055508160026000838152602001908152602001600020600701819055508167ffffffffffffffff81111561138557611384611a72565b5b6040519080825280602002602001820160405280156113b35781602001602082028036833780820191505090505b506002600083815260200190815260200160002060030190805190602001906113dd92919061144c565b5042813373ffffffffffffffffffffffffffffffffffffffff167f91a11d5313bbde13a24952302dd368e9b73f30da3c9dc8785e35c1c276e59010866040516114269190612112565b60405180910390a46001600081548092919061144190611c6a565b919050555050505050565b828054828255906000526020600020908101928215611488579160200282015b8281111561148757825182559160200191906001019061146c565b5b5090506114959190611499565b5090565b5b808211156114b257600081600090555060010161149a565b5090565b6000604051905090565b600080fd5b600080fd5b6000819050919050565b6114dd816114ca565b81146114e857600080fd5b50565b6000813590506114fa816114d4565b92915050565b600060208284031215611516576115156114c0565b5b6000611524848285016114eb565b91505092915050565b60008115159050919050565b6115428161152d565b82525050565b600060208201905061155d6000830184611539565b92915050565b600081519050919050565b600082825260208201905092915050565b60005b8381101561159d578082015181840152602081019050611582565b60008484015250505050565b6000601f19601f8301169050919050565b60006115c582611563565b6115cf818561156e565b93506115df81856020860161157f565b6115e8816115a9565b840191505092915050565b600073ffffffffffffffffffffffffffffffffffffffff82169050919050565b600061161e826115f3565b9050919050565b61162e81611613565b82525050565b600081519050919050565b600082825260208201905092915050565b6000819050602082019050919050565b611669816114ca565b82525050565b600061167b8383611660565b60208301905092915050565b6000602082019050919050565b600061169f82611634565b6116a9818561163f565b93506116b483611650565b8060005b838110156116e55781516116cc888261166f565b97506116d783611687565b9250506001810190506116b8565b5085935050505092915050565b6116fb816114ca565b82525050565b6000608082019050818103600083015261171b81876115ba565b905061172a6020830186611625565b818103604083015261173c8185611694565b905061174b60608301846116f2565b95945050505050565b60006020820190506117696000830184611625565b92915050565b600081519050919050565b600082825260208201905092915050565b6000819050602082019050919050565b6117a481611613565b82525050565b60006117b6838361179b565b60208301905092915050565b6000602082019050919050565b60006117da8261176f565b6117e4818561177a565b93506117ef8361178b565b8060005b8381101561182057815161180788826117aa565b9750611812836117c2565b9250506001810190506117f3565b5085935050505092915050565b6000602082019050818103600083015261184781846117cf565b905092915050565b61185881611613565b811461186357600080fd5b50565b6000813590506118758161184f565b92915050565b60008060408385031215611892576118916114c0565b5b60006118a0858286016114eb565b92505060206118b185828601611866565b9150509250929050565b600081519050919050565b600082825260208201905092915050565b6000819050602082019050919050565b600082825260208201905092915050565b600061190382611563565b61190d81856118e7565b935061191d81856020860161157f565b611926816115a9565b840191505092915050565b600061193d83836118f8565b905092915050565b6000602082019050919050565b600061195d826118bb565b61196781856118c6565b935083602082028501611979856118d7565b8060005b858110156119b557848403895281516119968582611931565b94506119a183611945565b925060208a0199505060018101905061197d565b50829750879550505050505092915050565b600060808201905081810360008301526119e18187611952565b905081810360208301526119f581866117cf565b90508181036040830152611a098185611694565b90508181036060830152611a1d8184611694565b905095945050505050565b60008060408385031215611a3f57611a3e6114c0565b5b6000611a4d858286016114eb565b9250506020611a5e858286016114eb565b9150509250929050565b600080fd5b600080fd5b7f4e487b7100000000000000000000000000000000000000000000000000000000600052604160045260246000fd5b611aaa826115a9565b810181811067ffffffffffffffff82111715611ac957611ac8611a72565b5b80604052505050565b6000611adc6114b6565b9050611ae88282611aa1565b919050565b600067ffffffffffffffff821115611b0857611b07611a72565b5b611b11826115a9565b9050602081019050919050565b82818337600083830152505050565b6000611b40611b3b84611aed565b611ad2565b905082815260208101848484011115611b5c57611b5b611a6d565b5b611b67848285611b1e565b509392505050565b600082601f830112611b8457611b83611a68565b5b8135611b94848260208601611b2d565b91505092915050565b600080600060608486031215611bb657611bb56114c0565b5b600084013567ffffffffffffffff811115611bd457611bd36114c5565b5b611be086828701611b6f565b9350506020611bf1868287016114eb565b9250506040611c02868287016114eb565b9150509250925092565b7f4e487b7100000000000000000000000000000000000000000000000000000000600052603260045260246000fd5b7f4e487b7100000000000000000000000000000000000000000000000000000000600052601160045260246000fd5b6000611c75826114ca565b91507fffffffffffffffffffffffffffffffffffffffffffffffffffffffffffffffff8203611ca757611ca6611c3b565b5b600182019050919050565b7f456c656374696f6e20646f6573206e6f74206578697374000000000000000000600082015250565b6000611ce860178361156e565b9150611cf382611cb2565b602082019050919050565b60006020820190508181036000830152611d1781611cdb565b9050919050565b7f416c72656164792061206d656d62657200000000000000000000000000000000600082015250565b6000611d5460108361156e565b9150611d5f82611d1e565b602082019050919050565b60006020820190508181036000830152611d8381611d47565b9050919050565b7f5265717565737420616c72656164792073656e74000000000000000000000000600082015250565b6000611dc060148361156e565b9150611dcb82611d8a565b602082019050919050565b60006020820190508181036000830152611def81611db3565b9050919050565b7f4e487b7100000000000000000000000000000000000000000000000000000000600052602260045260246000fd5b60006002820490506001821680611e3d57607f821691505b602082108103611e5057611e4f611df6565b5b50919050565b7f796f7520617265206e6f742061646d696e000000000000000000000000000000600082015250565b6000611e8c60118361156e565b9150611e9782611e56565b602082019050919050565b60006020820190508181036000830152611ebb81611e7f565b9050919050565b7f4e6f742061206d656d626572206f662074686520656c656374696f6e00000000600082015250565b6000611ef8601c8361156e565b9150611f0382611ec2565b602082019050919050565b60006020820190508181036000830152611f2781611eeb565b9050919050565b7f656c656374696f6e20646f6573206e6f74206578697374000000000000000000600082015250565b6000611f6460178361156e565b9150611f6f82611f2e565b602082019050919050565b60006020820190508181036000830152611f9381611f57565b9050919050565b7f696e76616c6964206f7074696f6e000000000000000000000000000000000000600082015250565b6000611fd0600e8361156e565b9150611fdb82611f9a565b602082019050919050565b60006020820190508181036000830152611fff81611fc3565b9050919050565b7f796f75206861766520616c726561647920766f74656400000000000000000000600082015250565b600061203c60168361156e565b915061204782612006565b602082019050919050565b6000602082019050818103600083015261206b8161202f565b9050919050565b7f766f74652068617320656e646564000000000000000000000000000000000000600082015250565b60006120a8600e8361156e565b91506120b382612072565b602082019050919050565b600060208201905081810360008301526120d78161209b565b9050919050565b60006120e9826114ca565b91506120f4836114ca565b925082820190508082111561210c5761210b611c3b565b5b92915050565b600060208201905061212760008301846116f2565b92915050565b6000612138826114ca565b9150612143836114ca565b925082820390508181111561215b5761215a611c3b565b5b92915050565b7f4e487b7100000000000000000000000000000000000000000000000000000000600052603160045260246000fd5b7f456c656374696f6e2073686f756c64206174206c65617374206861766520747760008201527f6f207061727469636970616e7473000000000000000000000000000000000000602082015250565b60006121ec602e8361156e565b91506121f782612190565b604082019050919050565b6000602082019050818103600083015261221b816121df565b9050919050565b7f656e642074696d652063616e277420626520696e207061737400000000000000600082015250565b600061225860198361156e565b915061226382612222565b602082019050919050565b600060208201905081810360008301526122878161224b565b9050919050565b60008190508160005260206000209050919050565b60006020601f8301049050919050565b600082821b905092915050565b6000600883026122f07fffffffffffffffffffffffffffffffffffffffffffffffffffffffffffffffff826122b3565b6122fa86836122b3565b95508019841693508086168417925050509392505050565b6000819050919050565b600061233761233261232d846114ca565b612312565b6114ca565b9050919050565b6000819050919050565b6123518361231c565b61236561235d8261233e565b8484546122c0565b825550505050565b600090565b61237a61236d565b612385818484612348565b505050565b5b818110156123a95761239e600082612372565b60018101905061238b565b5050565b601f8211156123ee576123bf8161228e565b6123c8846122a3565b810160208510156123d7578190505b6123eb6123e3856122a3565b83018261238a565b50505b505050565b600082821c905092915050565b6000612411600019846008026123f3565b1980831691505092915050565b600061242a8383612400565b9150826002028217905092915050565b61244382611563565b67ffffffffffffffff81111561245c5761245b611a72565b5b6124668254611e25565b6124718282856123ad565b600060209050601f8311600181146124a45760008415612492578287015190505b61249c858261241e565b865550612504565b601f1984166124b28661228e565b60005b828110156124da578489015182556001820191506020850194506020810190506124b5565b868310156124f757848901516124f3601f891682612400565b8355505b6001600288020188555050505b50505050505056fea264697066735822122036e3451e441427c15e93032148f533a4e7c6440be4a567d460514a7b3ec50bac64736f6c63430008130033",
  "linkReferences": {},
  "deployedLinkReferences": {}
}